:100000000C9446000C945D000C945D000C945D0013
:100010000C945D000C945D000C945D000C945D00EC
:100020000C945D000C945D000C945D000C945D00DC
:100030000C945D000C945D000C945D000C945D00CC
:100040000C945D000C945D000C945D000C945D00BC
:100050000C945D000C945D000C945D000C945D00AC
:100060000C945D000C945D000C945D000C945D009C
:100070000C945D000C945D000C945D000C945D008C
:100080000C945D000C945D000C945D0011241FBE67
:10009000CFEFD0E4DEBFCDBF11E0A0E0B1E0E6E8F5
:1000A000F1E000E00BBF02C007900D92AE30B10747
:1000B000D9F70E9470000C94C1000C940000CF93FB
:1000C000C82F8A3019F48DE00E945F008091C00033
:1000D00085FFFCCFC093C60080E090E0CF910895EB
:1000E00011B88FEF82B987B918B880B18095982F71
:1000F0009F7019F480E488B9F8CF80FD02C081FFB9
:1001000003C080E688B9F1CF282F2370233011F087
:1001100082FF03C080E788B9E8CF282F25702530FB
:1001200021F0282F2670263019F488E388B9DDCF16
:10013000282F2770273031F083FD04C0282F297025
:10014000293019F48CE388B9D0CF282F2A702A30AF
:1001500041F0282F2B702B3021F0282F2C702C30C1
:1001600019F48EE388B9C1CF282F2D702D3031F0CE
:100170008E708E3019F09F3009F0B7CF8FE388B9B9
:06018000B4CFF894FFCF9C
:0E01860000000002000000005F00000000000A
:00000001FF
